{
  "contractName": "Anggota",
  "abi": [
    {
      "inputs": [
        {
          "internalType": "uint256",
          "name": "_id",
          "type": "uint256"
        },
        {
          "internalType": "uint256",
          "name": "_created",
          "type": "uint256"
        },
        {
          "internalType": "string",
          "name": "_name",
          "type": "string"
        },
        {
          "internalType": "string",
          "name": "_alamat",
          "type": "string"
        },
        {
          "internalType": "string",
          "name": "_domisili",
          "type": "string"
        },
        {
          "internalType": "string",
          "name": "_url",
          "type": "string"
        },
        {
          "internalType": "bool",
          "name": "_verified",
          "type": "bool"
        }
      ],
      "stateMutability": "nonpayable",
      "type": "constructor"
    },
    {
      "inputs": [],
      "name": "alamat",
      "outputs": [
        {
          "internalType": "string",
          "name": "",
          "type": "string"
        }
      ],
      "stateMutability": "view",
      "type": "function"
    },
    {
      "inputs": [],
      "name": "created",
      "outputs": [
        {
          "internalType": "uint256",
          "name": "",
          "type": "uint256"
        }
      ],
      "stateMutability": "view",
      "type": "function"
    },
    {
      "inputs": [],
      "name": "domisili",
      "outputs": [
        {
          "internalType": "string",
          "name": "",
          "type": "string"
        }
      ],
      "stateMutability": "view",
      "type": "function"
    },
    {
      "inputs": [],
      "name": "name",
      "outputs": [
        {
          "internalType": "string",
          "name": "",
          "type": "string"
        }
      ],
      "stateMutability": "view",
      "type": "function"
    },
    {
      "inputs": [],
      "name": "url",
      "outputs": [
        {
          "internalType": "string",
          "name": "",
          "type": "string"
        }
      ],
      "stateMutability": "view",
      "type": "function"
    },
    {
      "inputs": [],
      "name": "verified",
      "outputs": [
        {
          "internalType": "bool",
          "name": "",
          "type": "bool"
        }
      ],
      "stateMutability": "view",
      "type": "function"
    },
    {
      "inputs": [
        {
          "internalType": "bool",
          "name": "_verified",
          "type": "bool"
        }
      ],
      "name": "setVerified",
      "outputs": [],
      "stateMutability": "nonpayable",
      "type": "function"
    }
  ],
  "bytecode": "0x60806040523480156200001157600080fd5b5060405162000a8a38038062000a8a833981810160405260e08110156200003757600080fd5b810190808051906020019092919080519060200190929190805160405193929190846401000000008211156200006c57600080fd5b838201915060208201858111156200008357600080fd5b8251866001820283011164010000000082111715620000a157600080fd5b8083526020830192505050908051906020019080838360005b83811015620000d7578082015181840152602081019050620000ba565b50505050905090810190601f168015620001055780820380516001836020036101000a031916815260200191505b50604052602001805160405193929190846401000000008211156200012957600080fd5b838201915060208201858111156200014057600080fd5b82518660018202830111640100000000821117156200015e57600080fd5b8083526020830192505050908051906020019080838360005b838110156200019457808201518184015260208101905062000177565b50505050905090810190601f168015620001c25780820380516001836020036101000a031916815260200191505b5060405260200180516040519392919084640100000000821115620001e657600080fd5b83820191506020820185811115620001fd57600080fd5b82518660018202830111640100000000821117156200021b57600080fd5b8083526020830192505050908051906020019080838360005b838110156200025157808201518184015260208101905062000234565b50505050905090810190601f1680156200027f5780820380516001836020036101000a031916815260200191505b5060405260200180516040519392919084640100000000821115620002a357600080fd5b83820191506020820185811115620002ba57600080fd5b8251866001820283011164010000000082111715620002d857600080fd5b8083526020830192505050908051906020019080838360005b838110156200030e578082015181840152602081019050620002f1565b50505050905090810190601f1680156200033c5780820380516001836020036101000a031916815260200191505b50604052602001805190602001909291905050508660008190555085600181905550846002908051906020019062000376929190620003e9565b5083600390805190602001906200038f929190620003e9565b508260049080519060200190620003a8929190620003e9565b508160059080519060200190620003c1929190620003e9565b5080600660006101000a81548160ff0219169083151502179055505050505050505062000498565b828054600181600116156101000203166002900490600052602060002090601f016020900481019282601f106200042c57805160ff19168380011785556200045d565b828001600101855582156200045d579182015b828111156200045c5782518255916020019190600101906200043f565b5b5090506200046c919062000470565b5090565b6200049591905b808211156200049157600081600090555060010162000477565b5090565b90565b6105e280620004a86000396000f3fe608060405234801561001057600080fd5b506004361061007d5760003560e01c80635600f04f1161005b5780635600f04f146101a657806372b1ec7f1461022957806372f10ff4146102ac578063bbb82d89146102dc5761007d565b806306fdde0314610082578063325a19f1146101055780633b7f683c14610123575b600080fd5b61008a6102fe565b6040518080602001828103825283818151815260200191508051906020019080838360005b838110156100ca5780820151818401526020810190506100af565b50505050905090810190601f1680156100f75780820380516001836020036101000a031916815260200191505b509250505060405180910390f35b61010d61039c565b6040518082815260200191505060405180910390f35b61012b6103a2565b6040518080602001828103825283818151815260200191508051906020019080838360005b8381101561016b578082015181840152602081019050610150565b50505050905090810190601f1680156101985780820380516001836020036101000a031916815260200191505b509250505060405180910390f35b6101ae610440565b6040518080602001828103825283818151815260200191508051906020019080838360005b838110156101ee5780820151818401526020810190506101d3565b50505050905090810190601f16801561021b5780820380516001836020036101000a031916815260200191505b509250505060405180910390f35b6102316104de565b6040518080602001828103825283818151815260200191508051906020019080838360005b83811015610271578082015181840152602081019050610256565b50505050905090810190601f16801561029e5780820380516001836020036101000a031916815260200191505b509250505060405180910390f35b6102da600480360360208110156102c257600080fd5b8101908080351515906020019092919050505061057c565b005b6102e4610599565b604051808215151515815260200191505060405180910390f35b60028054600181600116156101000203166002900480601f0160208091040260200160405190810160405280929190818152602001828054600181600116156101000203166002900480156103945780601f1061036957610100808354040283529160200191610394565b820191906000526020600020905b81548152906001019060200180831161037757829003601f168201915b505050505081565b60015481565b60048054600181600116156101000203166002900480601f0160208091040260200160405190810160405280929190818152602001828054600181600116156101000203166002900480156104385780601f1061040d57610100808354040283529160200191610438565b820191906000526020600020905b81548152906001019060200180831161041b57829003601f168201915b505050505081565b60058054600181600116156101000203166002900480601f0160208091040260200160405190810160405280929190818152602001828054600181600116156101000203166002900480156104d65780601f106104ab576101008083540402835291602001916104d6565b820191906000526020600020905b8154815290600101906020018083116104b957829003601f168201915b505050505081565b60038054600181600116156101000203166002900480601f0160208091040260200160405190810160405280929190818152602001828054600181600116156101000203166002900480156105745780601f1061054957610100808354040283529160200191610574565b820191906000526020600020905b81548152906001019060200180831161055757829003601f168201915b505050505081565b80600660006101000a81548160ff02191690831515021790555050565b600660009054906101000a900460ff168156fea2646970667358221220e27f60046c908079a840d8479c349212fcd40cd577068108875584325ec0f64464736f6c63430006000033",
  "source": "// SPDX-License-Identifier: MIT\r\npragma solidity ^0.6.0;\r\n\r\ncontract Group {\r\n    address[] member;\r\n    address[] verifiedMembers;\r\n    uint256 id = 0;\r\n    uint256 contractCreation;\r\n    address owner;\r\n\r\n    constructor() public {\r\n        contractCreation = block.timestamp;\r\n        owner = msg.sender;\r\n    }\r\n\r\n    modifier onlyOwner(address _user) {\r\n        require(owner == _user);\r\n        _;\r\n    }\r\n\r\n    event anggotaCreated(\r\n        uint256 _id,\r\n        uint256 _created,\r\n        string _name,\r\n        string _alamat,\r\n        string _domisili,\r\n        string _url\r\n        //bool verified\r\n    );\r\n    event UpdateVerified(\r\n        address indexed sender,\r\n        address[] data,\r\n        uint256 timestamp\r\n    );\r\n\r\n    mapping(uint256 => Anggota) internal idToAnggota;\r\n\r\n    //Creation of Anggota\r\n    //Stiap anggota yg di create verified akan false secara default\r\n    //Anggota akan menjadi verified jika sudah 3 hari\r\n    function createAnggota(\r\n        string memory _name,\r\n        string memory _alamat,\r\n        string memory _domisili,\r\n        string memory _url\r\n    ) public onlyOwner(msg.sender) {\r\n        uint256 _created = block.timestamp;\r\n        Anggota anggota = new Anggota(\r\n            id,\r\n            _created,\r\n            _name,\r\n            _alamat,\r\n            _domisili,\r\n            _url,\r\n            false\r\n        );\r\n        member.push(address(anggota));\r\n        idToAnggota[id] = anggota;\r\n        id++;\r\n        emit anggotaCreated(id, _created, _name, _alamat, _domisili, _url);\r\n    }\r\n\r\n    function getAnggotaAddress(uint256 _id) public view returns (address) {\r\n        return (address(member[_id]));\r\n    }\r\n\r\n    function append(\r\n        string memory a,\r\n        string memory b,\r\n        string memory c,\r\n        string memory d\r\n    ) internal pure returns (string memory) {\r\n        return string(abi.encodePacked(a, \" \", b, \" \", c, \" \", d, \" \"));\r\n    }\r\n\r\n    function addressData(uint256 _id) public view returns (string memory) {\r\n        string memory temp = append(\r\n            Anggota(member[_id]).name(),\r\n            Anggota(member[_id]).alamat(),\r\n            Anggota(member[_id]).domisili(),\r\n            Anggota(member[_id]).url()\r\n        );\r\n        return temp;\r\n    }\r\n\r\n    /*\r\n    //Check smua member yg ada dan push member yg sudah verifed ke verifiedMembers array.\r\n    function checkVerified() internal{\r\n\r\n        for (uint i = 0; i < member.length; i++) {\r\n            if(now >= (Anggota(member[i]).created() + 10 seconds)){\r\n                Anggota(member[i]).setVerified(true);\r\n                if(verifiedMembers.length > 0){\r\n                    for(uint a = 0; a < verifiedMembers.length; a++){\r\n                        if(member[i] != verifiedMembers[a]){\r\n                            verifiedMembers.push(member[i]);\r\n                        } \r\n                    }\r\n                }else{\r\n                    verifiedMembers.push(member[i]);\r\n                }\r\n                \r\n                \r\n            }\r\n        }\r\n\r\n    }\r\n    */\r\n    function checkVerified() internal view returns (address[] memory) {\r\n        uint256 tmp = 0;\r\n        address[] memory tmp1 = new address[](member.length);\r\n\r\n        for (uint256 i = 0; i < member.length; i++) {\r\n            if ((Anggota(member[i]).created() + 5 seconds) <= block.timestamp) {\r\n                tmp1[tmp] = member[i];\r\n                tmp += 1;\r\n            }\r\n        }\r\n\r\n        for (uint256 i = 0; i < (member.length - (tmp + 1)); i++) {\r\n            delete tmp1[tmp1.length - 1];\r\n        }\r\n        // delete tmp1[tmp1.length-1];\r\n\r\n        return tmp1;\r\n    }\r\n\r\n    // function testing() internal view returns (uint[] memory){\r\n    //     uint[] memory aaa;\r\n    //     aaa[0] = 1;\r\n    //     aaa[1] = 2;\r\n    //     return aaa;\r\n    // }\r\n\r\n    // function test() public view returns(uint[] memory){\r\n    //     return testing();\r\n    // }\r\n\r\n    // Seharusnya call function, call smua anggota yg udh \"verified\"\r\n    //Stiap function ini di call, akan check panggil function checkVerified untuk check anggota\r\n    //yg sudah verified spuya dpt data yg paling recent. habis itu baru call.\r\n\r\n    //check and update data\r\n    function pushVerifiedAddress()\r\n        public\r\n        onlyOwner(msg.sender)\r\n        returns (address[] memory)\r\n    {\r\n        verifiedMembers = checkVerified();\r\n        emit UpdateVerified(msg.sender, verifiedMembers, block.timestamp);\r\n        return verifiedMembers;\r\n    }\r\n\r\n    //check only\r\n    function CheckOnlyVerifiedAddress() public view returns (address[] memory) {\r\n        return checkVerified();\r\n    }\r\n}\r\n\r\ncontract Anggota {\r\n    uint256 id;\r\n    uint256 public created;\r\n    string public name;\r\n    string public alamat;\r\n    string public domisili;\r\n    string public url;\r\n    bool public verified;\r\n\r\n    constructor(\r\n        uint256 _id,\r\n        uint256 _created,\r\n        string memory _name,\r\n        string memory _alamat,\r\n        string memory _domisili,\r\n        string memory _url,\r\n        bool _verified\r\n    ) public {\r\n        id = _id;\r\n        created = _created;\r\n        name = _name;\r\n        alamat = _alamat;\r\n        domisili = _domisili;\r\n        url = _url;\r\n        verified = _verified;\r\n    }\r\n\r\n    function setVerified(bool _verified) public {\r\n        verified = _verified;\r\n    }\r\n}\r\n",
  "sourcePath": "C:\\Users\\jonat\\Desktop\\HARA\\Truffle_test1\\contracts\\KartuAnggota.sol",
  "compiler": {
    "name": "solc",
    "version": "0.6.0+commit.26b70077.Emscripten.clang"
  },
  "schemaVersion": "3.4.4",
  "updatedAt": "2022-02-14T14:59:47.018Z",
  "devdoc": {
    "methods": {}
  },
  "userdoc": {
    "methods": {}
  }
}